1.测试
请求报文:
	FPA 7 3都是少了一个，停止发包后自动释放，测试一个晚上后没有异常。
响应报文:
	单独发，FPA个数一直不减少，不变。(说明分配的空间,在没有找请求的报文后正常的释放了)
	在请求30之内发,能够扑捉，删除sgsn上，添加ggsn上。
	3:少2个
	7:少1个
删除报文:
	单独发，FPA个数一直不减少，不变。(说明分配的空间,在没有找请求的报文后正常的释放了)
	能够正常扑捉，并在小于30秒内利用定时器删除。

一个完成的GTP报文：
	能够承受并解析、添加。正常释放空间。

gtc-c.pcap：
	会把FPA 7耗尽：
	sgsn_nodes = 3629, ggsn_nodes = 96371, ip_nodes = 96371
	停止发包后会正常释放，3 7号FPA。

----- 转发 ------
460004100000107
19:45:46.685454 00:16:31:ff:31:98 > 00:11:14:21:22:43, ethertype Unknown (0x9200), length 62: 
	0x0000:  0011 1421 2243 0016 31ff 3198 9200 0b64
	0x0010:  0040 0100 0001 f708 0045 0000 30bf 0700
	0x0020:  0040 11f8 8102 0304 05c0 a8fc 8300 6400
	0x0030:  c800 1cc7 e258 5858 5858 5858 5858
19:45:49.686111 00:16:31:ff:31:98 > 00:11:14:21:22:43, ethertype Unknown (0x9200), length 62: 
	0x0000:  0011 1421 2243 0016 31ff 3198 9200 0b64
	0x0010:  0040 0100 0001 f708 0045 0000 308b 8800
	0x0020:  0040 112c 0102 0304 05c0 a8fc 8300 6400
	0x0030:  c800 1cc7 e258 5858 5858 5858 5858

-----------IMSI---
Data Encoding - based on 3GPP TS 23.003 V8.5.0 (2009-06) §2.2 p13-14
8	7	6	5	4	3	2	1
Octet 0	Mobile country code digit 2	Mobile country code digit 1
Octet 1	Mobile network code digit 1	Mobile country code digit 3
Octet 2..	Rest of IMSI address
-----------Modify imsi order of GTP-----
00:16:31:ff:31:98 > 00:11:14:21:22:43, ethertype VMAN (0x9100), length 62:
0011 1421 2243 0016 31ff 3198 9100 0b46
0004 1000 0010 7f08 0045 0000 30fb 6a00
0040 11bc 1e02 0304 05c0 a8fc 8300 6400
c800 1cc7 e258 5858 5858 5858 5858

