1.测试
请求报文:
	FPA 7 3都是少了一个，停止发包后自动释放，测试一个晚上后没有异常。
响应报文:
	单独发，FPA个数一直不减少，不变。(说明分配的空间,在没有找请求的报文后正常的释放了)
	在请求30之内发,能够扑捉，删除sgsn上，添加ggsn上。
	3:少2个
	7:少1个
删除报文:
	单独发，FPA个数一直不减少，不变。(说明分配的空间,在没有找请求的报文后正常的释放了)
	能够正常扑捉，并在小于30秒内利用定时器删除。

一个完成的GTP报文：
	能够承受并解析、添加。正常释放空间。

gtc-c.pcap：
	会把FPA 7耗尽：
	sgsn_nodes = 3629, ggsn_nodes = 96371, ip_nodes = 96371
	停止发包后会正常释放，3 7号FPA。

----- 转发 ------
460004100000107
19:45:46.685454 00:16:31:ff:31:98 > 00:11:14:21:22:43, ethertype Unknown (0x9200), length 62: 
	0x0000:  0011 1421 2243 0016 31ff 3198 9200 0b64
	0x0010:  0040 0100 0001 f708 0045 0000 30bf 0700
	0x0020:  0040 11f8 8102 0304 05c0 a8fc 8300 6400
	0x0030:  c800 1cc7 e258 5858 5858 5858 5858
19:45:49.686111 00:16:31:ff:31:98 > 00:11:14:21:22:43, ethertype Unknown (0x9200), length 62: 
	0x0000:  0011 1421 2243 0016 31ff 3198 9200 0b64
	0x0010:  0040 0100 0001 f708 0045 0000 308b 8800
	0x0020:  0040 112c 0102 0304 05c0 a8fc 8300 6400
	0x0030:  c800 1cc7 e258 5858 5858 5858 5858

-----------IMSI---
Data Encoding - based on 3GPP TS 23.003 V8.5.0 (2009-06) §2.2 p13-14
8	7	6	5	4	3	2	1
Octet 0	Mobile country code digit 2	Mobile country code digit 1
Octet 1	Mobile network code digit 1	Mobile country code digit 3
Octet 2..	Rest of IMSI address
-----------Modify imsi order of GTP-----
00:16:31:ff:31:98 > 00:11:14:21:22:43, ethertype VMAN (0x9100), length 62:
0011 1421 2243 0016 31ff 3198 9100 0b46
0004 1000 0010 7f08 0045 0000 30fb 6a00
0040 11bc 1e02 0304 05c0 a8fc 8300 6400
c800 1cc7 e258 5858 5858 5858 5858

==============性能测试==========================
1.注释掉set gtp to pkt
	1_1 学习帐号
	1_2 发送相对应业务数据：
		real	1m24.855s
		27: 539164188
		4:  442891752
		104:442891752
	*就算关掉3gpp开关，还是会有这个现象，27值大于1_4口（=104计数器）

	2_1 不学习帐号
	2_2 发送业务数据
		real	1m13.374s
		show xfp 24 rate: 4 717 220 048 bps
		27: 461184426
		4:  461184426
		104:461184426
	3_1 学习帐号
	3_2 发送不相应的业务数据
		real	1m32.055s
		show xfp 24 rate: 4 706 263 408 bps
		27: 582816006
		4:  582816006
		104:582816006
	
	4_1 学习完，超时清除结点,关闭3gpp开关
	4_1 发送相应的业务数据
		与 1 结果相同
--------------------------------------------------
关闭开关：
	5_1 关闭开关去学习帐号
	5_2 发送业务数据
		与 1 结果相同

	6_1 重启关闭开关,不学习
	6_2 发送业务数据
		与 1 结果相同

	7_1 重启打开开关，不学习
	7_2 发送业务数据
		不丢包27 4口，104计数器数值一样，FPA_QUE0_AVAILABLE值正常保持在20387

	所以不丢包的情况是1.3gpp开着，2.而且表中没有数据 。
	关闭3gpp:
		注释掉eprm中radius 的get—set代码，无效。
		注释掉mproc中3g_app的代码无效
	打开3gpp：
		注释掉get_set（gtp）代码,把帐号学习了，再发业务不会丢包。
=============== 20130221 周四==================
关闭开关:
1. 9倍	4.8G 	2 mins
	27: 781226154
	4:  778404576
	104:778404576

2. 9倍	4.6G 	2 mins
	27: 844832358
	4:  755173494
	104:755173494

	vlan remove member 0 0xfc9 27
	vlan remove member 0 0xfc8 27	0 2 3 4 5 6 7 == 7倍。
1. 7倍	3.6G	2 mins
	27: 593065088
	4:  593065088
	104:593065088

2. 7倍	3.8G 	2 mins
	27: 705570012
	4:  705570012
	104:705570012
打开开关：
1. 7倍不学习任何帐号
	4.0G	2 mins
	27: 674946762
	4:  674946762
	104:674946762
2. 7倍学习不相关帐号,不一样的哈希值
	3.7G 	2 mins
	27: 606804730
	4:  606804730
	104:606804730

3-1. 7倍学习相应帐号	FPA0 17137
	4.2G	2mins	4201552320 bps
	27: 606702432
	4:  606702432
	104:606702432
3-2. 7倍学习相应帐号
	4.1G	2mins	4124456280 bps
	27: 597161446
	4:  597161446
	104:597161446

4-1. 9倍学习相应帐号,set
	4.1G	2mins	4123066080 bps
	27: 775600254
	4:  595289604
	104:595289604
4-2. 9倍学习相应帐号,set
	4.1G	2mins	4158384720 bps
	27: 823611042
	4:  596104532
	104:596104532
4-3. 9倍学习相应帐号,set
	27: 876453858
	4:  595534503
	104:595534503
5-1. 9倍学习不相关帐号	FPA0 20359
	4.9G	2mins	4954012064 bps	
	27: 776391921
	4:  776391921
	104:776391921
5-2. 9倍学习不相关帐号	FPA0 20344
	4.8G	2mins	4813970864
	27: 783920844
	4:  783920844
	104:783920844

5-3. 9倍学习不相关帐号
	4.9G	2mins	4960037840
	27: 802136655
	4:  802136655
	104:802136655
5-4. 9倍学习不相关帐号
	4.8G	2mins	4863587072
	27: 767145411
	4:  767145411
	104:767145411
6-1. 9倍不学习任何帐号
	4.7G	2mins	4768309424
	27: 787490307
	4:  767161292
	104:767161292
6-2. 9倍不学习任何帐号
	4.6G	2mins	4691397120
	27: 887940315
	4:  738199473
	104:738199473
6-3. 9倍不学习任何帐号
	4.9G	2mins	4953464608
	27: 819052344
	4 : 759465205
	104:759465205
6-4. 9倍不学习任何帐号
	4.8	2mins	
	27: 779167089
	4 : 779167089
	104:779167089
6-5. 9倍不学习任何帐号
	4.6	2mins	4690812816 
	27: 917885754	809764902 878525136 
	4 : 739426125	760513166 755965426
	104:739426125	760513166 755965426

========== 注释掉 3g_app内代码 ==============
7-1. 9倍不学习任何帐号
	4.8G 	2mins	4832173776bps
	27: 796484070	764424603
	4 : 796484070	764424603
	104:796484070	764424603

8-1. 13倍不学习任何帐号
	5.5G	2mins	5538068656 bps	FPA0 876	学习帐号	学习帐号			学习帐号
	27: 1245605915	1246590539	1217718396	1138464041	1098596408	1247356126	1141662191
	4 :  862864731	 867054492	 866042543	 871877869	 872320247	 870809064	 870821252
	104: 873544200	 873128744	 873592489	 871877869	 872320247	 874488808	 872094060
